:020000040000fa
:080000000001040000000000f3
:020000040000fa
:100200006f8b20000e7922000e0188000000000094
:100210000c000700e07a2000010020001100070018
:10022000000020000000e000020032000000020098
:1002300000000000a8040200000000000040da00f6
:100240000000fe004440a900000020000000e00083
:100250000300320000002000a00188004440a800f4
:100260000000060091018800800078000000eb008b
:1002700015003700e280400032a0b4009101ba00be
:10028000e280400032a0b4009102ba00e280400057
:1002900032a0b4000002eb00472bde00f507b200ed
:1002a000602ce10004003a000059eb008301e900f2
:1002b000fdff3e00040037006128e100010032002c
:1002c0000082eb00040007001101ba000200e00008
:1002d000e8ff3a00000006003159ba008301e90046
:1002e0000c0032002159ba008301e90008003200f5
:1002f0000400e00003003a00e280400032a0b400b5
:10030000f5ff370011d9ba008301e900faff3a007e
:100310008100e800e180400032a0b4000000060047
:10032000ff3ffc00f7438000084480001944800030
:100330000900440001002400c8020200000000007f
:100340000080530051552500c80202000000000043
:100350008003780009005400719e2400c802020046
:1003600000000000000478000700780001438000ce
:10037000c802020000000000800478000800780035
:10038000f1428000c802020000000000008044002a
:10039000204488000800780001438000c802020061
:1003a000000000008004780007007800f14280001f
:1003b000c8020200000000000080540030448800a1
:1003c0000000fc000000060030158800a022a800f4
:1003d000a002ae00feff3700a002aa0000148000b9
:1003e0004100de0000000600ff3ffc00303020002e
:1003f000e4010200000000008003780020202000bb
:10040000e40102000000000000047800a544800020
:100410000538e10012003c000540e10010003c00fe
:10042000c1bbde0041c4de00088043004180de0025
:1004300091428000c80202000000000080007800a5
:10044000c04380009202020000000000c142800010
:10045000c80202000000000040458800010037008b
:100460008980a8000000fc0000000600ff3ffc009f
:100470002044800001438000c80202000000000008
:100480008004780030448000f1428000c8020200fd
:10049000000000008083540020448000f14280006e
:1004a000c802020000000000800478003044800090
:1004b00001438000c80202000000000000844400e4
:1004c000f7438800a0ed260088007800c8020200eb
:1004d00000000000800478000000240087007800fd
:1004e000c8020200000000000080540000448800a0
:1004f0006012290088007800c80202000000000095
:10050000800478000000240087007800c802020000
:100510000000000000805400104488000000fc002f
:100520000000060000027800810278000500e0006b
:10053000010032000300370060026a00100033003f
:1005400011003700120009000520d9000400300016
:10055000110228000100e100090034000b003700ff
:1005600060026a0003003300e0826a000400330086
:1005700002003700e0826a0001003b000200370001
:100580001002280001003700f0fd270000000600df
:1005900000027800810278001301c0004100c80009
:1005a000f60020000600c8001001800000000600d0
:1005b000ff3ffc0001005000660302000000000045
:1005c00000027800820278001301c0004100c800d8
:1005d000200302000000000066030200000000008b
:1005e00000047800e942800009004200660302002e
:1005f0000000000000027800e042880083027800da
:100600001301c0004100c8002003020000000000e8
:100610006603020000000000800478000900440026
:10062000aa428000bb4280000a80e6000a007800ef
:100630000b00e6000b0078004380de002e00370040
:100640004220ef0060026a000a0033002a018000a5
:100650000a00e00018003a001a0180000a00e000d9
:1006600018003200020009004555de0012003a0071
:10067000140037002a018000fbff2f000a00e00071
:1006800001003a000f0037000b50e10007003a006c
:100690001a0180000a00e0000a003200020009008e
:1006a0004555de0001003200060037001a0228001e
:1006b0001a01880003003700fafd27001a0188009c
:1006c000000037001001800000000600fafd230042
:1006d0001b022c000a00e10003003d000b00e100ba
:1006e00003003400030037000a00780001003700df
:1006f0000b007800000006000000fc00000006006f
:10070000ff3ffc00c5428000f04380000500400030
:10071000a403020000000000b00e88000044800026
:1007200005004000a403020000000000c00e880085
:100730001044800005004000a403020000000000f7
:10074000d00e8800040037000000e00001003c00eb
:1007500000002000000006000000fc000000060071
:100760000600fa00200798000000eb00000f780058
:100770000c0037000000eb00100798000400370061
:100780000060fe001e0090000000e80010079800c6
:100790009e009000e0822600808f5000f8ff360017
:1007a0001e0fe8002e0090009e0f1000f1ff390090
:1007b0000080fa00000006000000fa00e402a90030
:1007c000e422a900e442a900e462a900e4c2a9006d
:1007d000011c200091407800c0cfb30000c0600031
:1007e0000014a000c0e1b700210e80000000280026
:1007f00000806000116f200001007000200e880052
:10080000c801a900c821a900c841a900c881a90040
:10081000c8a1a900c8c1a900ca41a900ccc1bf0094
:10082000f043b20001c8b30001407000cce1b70052
:10083000c11c20009140780000ccb30000c06000d3
:10084000a040b300cce1b700d201a900d221a90099
:10085000d241a900b01020001008880005e1a900cd
:10086000505320006008880011e1a900c08a2000d0
:100870007008880013e1a90040032d00d00888000b
:100880001fe1a90030de2000e008880021e1a90076
:10089000012a20009140780000ceb30000c0700013
:1008a000a0e2b700a062a900112a200091407800c0
:1008b000c0cfb30000c060000014a000a1e2b700e8
:1008c0000000eb0010158800512a200091407800ac
:1008d00000ceb30000c060000014a000a5e2b70085
:1008e000412a20009140780000ccb30000c0600095
:1008f0005040b300a4e2b700300128004015880042
:100900000000eb0050158800a1e2a80081e0a900da
:10091000aac0bf007040b300aae0b7009180a80051
:100920008c60a8008cc0a90051092000914078007b
:10093000f0c8b30000c0600001c6b3000140700001
:1009400095e0b70090e0a9000080fa0000000600e2
:100950000000fa0098ff07003001070084c0bf00c4
:100960000044b2000004e00073003200ff3ffc00ce
:100970008080200094fe0700800078008042800084
:1009800000805000f0438800909020008efe070009
:100990008000780080428000008050000044880081
:1009a000a0a0200088fe0700800078008042800020
:1009b00000805000104488000000fc00f1438000db
:1009c000b0448000808f5000010034008980a8006e
:1009d00001448000b0448000808f5000010034004a
:1009e0008980a80011448000b0448000808f5000ae
:1009f000010034008980a800f1438000c0448000d9
:100a0000808f500001003d008980a80001448000d3
:100a1000c0448000808f500001003d008980a80004
:100a200011448000c0448000808f500001003d00d0
:100a30008980a8003afe070060448000e0428800f8
:100a4000504480004244800021448000844480005f
:100a50008001780004007800d5fe0700604488001b
:100a6000d0438000f044880001458000604480004d
:100a700022010700d0438800d143800090458000c8
:100a8000008040002044880021448000e044800031
:100a9000808f500002003500e04480002044880030
:100aa00021448000d0448000808f500002003c0030
:100ab000d04480002044880070448000e0428800d8
:100ac000504480004244800031448000800178001e
:100ad0000000eb00b6fe070070448800e043800091
:100ae000f044880001458000704480000301070045
:100af000e0438800e04380003044880031448000b7
:100b0000e0448000808f500002003500e044800007
:100b10003044880031448000d0448000808f5000f1
:100b200002003c00d0448000304488004ffe0700a3
:100b3000f3fe070084c0a90084c0bf0001c8b30051
:100b4000014060000004e00037003200ff3ffc007d
:100b5000505020001cfe070080007800804280007a
:100b600000805000f04388006060200016fe0700ff
:100b7000800078008042800000805000004488009f
:100b80007070200010fe0700800078008042800016
:100b900000805000104488000000fc00e0fd0700c9
:100ba00020448000c0438800a0458000f0448800b5
:100bb0001145800030448000d0000700a045880027
:100bc000b0438000e0428800a04380009243800050
:100bd000a1458000800178000000eb0074fe070052
:100be000b0438800b14380004043800068fe0700a6
:100bf000b0438800b143800020438000808f5000c4
:100c00000200350020438000b0438800b1438000db
:100c100030438000808f500002003c003043800051
:100c2000b043880084e0a90086c0bf000042b20043
:100c30000004e00042003200ebfd07009045800018
:100c4000f04488002145800040458000ab0007004b
:100c500090458800504580000000e800504588001d
:100c6000604580000000e00018003a005145800017
:100c700030458000808f50001400350041458000d1
:100c800070458000808f5000010035008980a900e8
:100c90004145800080458000808f500001003c006d
:100ca0008980a900404580000000e00001003a0072
:100cb0008980a90070072000400e880010002000e5
:100cc000604588000000eb005045880060458000ca
:100cd0000000e000190032004145800070458000ae
:100ce000808f5000010035008980a90041458000b7
:100cf00080458000808f500001003c008980a90061
:100d0000404580000000e00001003a008980a90011
:100d1000804480000000e900804488008144800015
:100d200090448000808f500002003c00904480007e
:100d3000804488000000eb005045880086a0a90090
:100d40000060fe0005ff370000a0fe003600f8003e
:100d5000849fbe00869fbe000000fa00b143800061
:100d60004043800000804000104388001043800012
:100d70006101b900504380006143800002004000df
:100d800083804800504388006143880052438000bc
:100d9000634380007043800081438000800f5100d6
:100da000818f5900080035000000eb00f0428800f8
:100db00080eb2700004388006000b80050438800a3
:100dc0006143880001003700540007008460a900d7
:100dd0000080fa004f03be004f02be003600f9004b
:100de0000080fe0000400600801f78000000fa002e
:100df000c1e1a9000000eb00400e8800e622a90036
:100e0000e642a900e662a900e6c2a9008980a9001d
:100e10000080fa004f007800004006000000fa0051
:100e2000200e8000c0428800200e80000000ea00f2
:100e3000d0428800c04280004300dd00a04288000c
:100e4000c142800080ff2f000088b900b0428800b6
:100e50000000eb00400e8800c1e1a9001000200056
:100e6000900e8800e00120003dfe0700a1e2a800ee
:100e7000e602a8006009200039fe0700e0e020003b
:100e800051fd070080428800e602a900e001200031
:100e900033fe0700e622a800e001200030fe070034
:100ea000c0428000b00e8800c0428000c00e8800a2
:100eb000c0428000d00e8800e642a8004001200019
:100ec00027fe0700e662a8004001200024fe07007c
:100ed000e6c2a800e001200021fe0700c1e1a80051
:100ee00005e1a80011e1a80013e1a8001fe1a80096
:100ef00021e1a9000080fa0000000600ff3ffc008d
:100f0000f244800002005000c8020200000000000d
:100f1000020040000000fc0000000600ff3ffc0053
:100f2000f94280000043800011438000c8020200a3
:100f30000000000000804400f04288000943800067
:100f400011438000c802020000000000008054002d
:0c0f5000004388000000fc0000000600c8
:020000040000fa
:0200000401f009
:04000000f7ff000006
:020000040000fa
:0200000401f009
:04000400c0ff000039
:020000040000fa
:0200000401f009
:04000800dfff000016
:020000040000fa
:10000800fa070000fa070000fa070000fa070000e4
:10001800fa070000fa070000fa070000fa070000d4
:10002800fa070000fa070000fa070000a40600001b
:10003800fa070000fa070000fa070000fa070000b4
:10004800fa070000fa070000fa070000fa070000a4
:10005800fa070000fa070000fa070000fa07000094
:10006800fa070000fa070000fa070000fa07000084
:10007800fa070000fa070000fa070000fa07000074
:10008800fa070000fa070000fa070000fa07000064
:10009800fa070000fa070000fa070000fa07000054
:1000a800fa070000fa070000fa070000fa07000044
:1000b800fa070000fa070000fa070000fa07000034
:1000c800fa070000fa070000fa070000fa07000024
:1000d800f4060000fa070000fa070000fa0700001b
:1000e800fa070000fa070000fa070000fa07000004
:0800f800fa070000fa070000fe
:020000040000fa
:10010800fa070000fa070000fa070000fa070000e3
:10011800fa070000fa070000fa070000fa070000d3
:10012800fa070000fa070000fa070000a40600001a
:10013800fa070000fa070000fa070000fa070000b3
:10014800fa070000fa070000fa070000fa070000a3
:10015800fa070000fa070000fa070000fa07000093
:10016800fa070000fa070000fa070000fa07000083
:10017800fa070000fa070000fa070000fa07000073
:10018800fa070000fa070000fa070000fa07000063
:10019800fa070000fa070000fa070000fa07000053
:1001a800fa070000fa070000fa070000fa07000043
:1001b800fa070000fa070000fa070000fa07000033
:1001c800fa070000fa070000fa070000fa07000023
:1001d800f4060000fa070000fa070000fa0700001a
:1001e800fa070000fa070000fa070000fa07000003
:0801f800fa070000fa070000fd
:020000040000fa
:100f5c0050080000660000000200000000000e00b7
:100f6c007400000000000000000000000000000001
:100f7c0000b87e0000002d0000d3ff005c050000cf
:100f8c0000000000e8230300001200000300000032
:100f9c000000000000000000000000000000000045
:100fac000000000000000900000300000000000029
:100fbc000000000036f75000789411006cee5900d8
:100fcc00f5a70a000000b4000076020076022800a3
:100fdc00230000000000000000ea060016f90000e3
:080fec000000000000000000fd
:020000040000fa
:080ff4000040da000000fe00dd
:00000001FF
